:100000000C942A000C943F000C943F000C943F0089
:100010000C943F000C943F000C943F000C943F0064
:100020000C943F000C943F000C943F000C943F0054
:100030000C943F000C943F000C943F000C943F0044
:100040000C943F000C943F000C943F000C943F0034
:100050000C943F0011241FBECFE5D8E0DEBFCDBF1A
:1000600010E0A0E6B0E0EAEEF0E002C005900D92EC
:10007000A837B107D9F70E945C000C9473000C9468
:10008000000010BC87E689B988E18AB986E880BD9E
:1000900008955D9BFECF8CB90895CF93DF93EC015B
:1000A0008881882331F021960E944900899181112D
:1000B000FBCFDF91CF910895A09AA89A0E944100AA
:1000C00080E690E00E944D00A89902C0A89A01C065
:1000D000A8982FEF8BE792E9215080409040E1F7FC
:0A00E00000C00000EDCFF894FFCF40
:1000EA0048656C6C6F20576F726C64204261727441
:0800FA00656B200A0D0A0000ED
:00000001FF
