S01400006275696C642F427574746F6E2E7372656355
S11300000C942A000C9434000C9434000C943400A6
S11300100C9434000C9434000C9434000C9434008C
S11300200C9434000C9434000C9434000C9434007C
S11300300C9434000C9434000C9434000C9434006C
S11300400C9434000C9434000C9434000C9434005C
S11300500C94340011241FBECFE5D8E0DEBFCDBF21
S11300600E9436000C944C000C94000083E084BB86
S1130070A89AAA9A80E090E021E032E001C0892F9A
S11300809A99FDCF8111FCCF85B3822785BB85B3B7
S10F0090832785BB822FF4CFF894FFCFA8
S9030000FC
